:100000000C9434000C9451000C9451000C94510049
:100010000C9451000C9451000C9451000C9451001C
:100020000C9451000C9451000C940E010C9451004E
:100030000C9451000C9451000C9451000C945100FC
:100040000C9451000C9451000C9451000C945100EC
:100050000C9451000C9451000C9451000C945100DC
:100060000C9451000C94510011241FBECFEFD8E026
:10007000DEBFCDBF11E0A0E0B1E0EEE6F2E002C0ED
:1000800005900D92AA31B107D9F711E0AAE1B1E0CC
:1000900001C01D92AC31B107E1F70E94C7000C947A
:1000A00035010C940000CF93DF93282F392FE901FD
:1000B00020E030E009C04091C00045FFFCCF4991ED
:1000C0004093C6002F5F3F4FFC0101900020E9F7ED
:1000D0003197E81BF90B2E173F0768F38091C0009A
:1000E00085FFFCCF8AE08093C6008091C00085FF29
:1000F000FCCF8DE08093C600DF91CF910895E0ECB6
:10010000F0E08081826080831092C5008CE0809353
:10011000C40086E08093C20088E18093C10080E043
:1001200091E00E9453000895E0ECF0E0808182604D
:1001300080831092C5008CE08093C40086E0809399
:10014000C20088E18093C10080E091E00E945300EA
:100150000895CF93DF93282F392FE90120E030E075
:1001600009C04091C00045FFFCCF49914093C600B3
:100170002F5F3F4FFC0101900020E9F73197E81B0A
:10018000F90B2E173F0768F3DF91CF9108958EEF9B
:1001900084B98FEF8AB982E08093810080916F00EB
:1001A000806280936F0083EA84BD85B5826085BDDF
:1001B0004FEF5FE021E038E0B0992D9A80911A016D
:1001C00090911B0170E18030970728F050931B013C
:1001D00040931A012C9A80911A0190911B0178E0AA
:1001E0008030970728F430931B0120931A012B9A33
:1001F00080911A0190911B018050984090931B01AF
:1002000080931A0180911A0190911B01880F880F29
:10021000880F87BD6F5F81F615B8CECF1F920F9202
:100220000FB60F9211248F939F938091810086FFC8
:1002300008C01092850010928400809181008F7B0D
:100240000BC0809186009091870090931B01809352
:100250001A01809181008064809381009F918F9129
:0E0260000F900FBE0F901F901895F894FFCFCF
:10026E0073657269616C20706F727420696E697447
:0A027E002066726F6D204156520099
:00000001FF
